:020000040800F2
:10000000A81000208D270008390900083B090008C6
:100010003F090008430900084709000800000000E4
:100020000000000000000000000000004B09000874
:100030004D090008000000004F09000851090008A0
:10004000A7270008A7270008A7270008A727000858
:10005000A7270008A7270008A7270008A727000848
:10006000A7270008A7270008A7270008A727000838
:10007000A7270008A7270008A7270008A727000828
:10008000A7270008A7270008A7270008A727000818
:10009000A7270008A7270008A7270008851E000833
:1000A000A7270008A7270008A7270008A7270008F8
:1000B000A7270008FF0C0008A7270008A7270008AB
:1000C000A7270008A7270008A7270008A7270008D8
:1000D000A72700088D250008A7270008A7270008E4
:1000E000A7270008A7270008A7270008A7270008B8
:1000F000A7270008A7270008A7270008A7270008A8
:10010000A7270008A7270008A7270008A727000897
:10011000B7260008A7270008A7270008A727000878
:10012000A7270008A7270008A7270008A727000877
:1001300000F002F800F0B0F80AA090E8000C824449
:100140008344AAF10107DA4501D100F0A5F8AFF226
:10015000090EBAE80F0013F0010F18BFFB1A43F0A5
:100160000103184744750000647500000A444FF00D
:10017000000C10F8013B13F0070408BF10F8014B06
:100180001D1108BF10F8015B641E05D010F8016B4B
:10019000641E01F8016BF9D113F0080F1EBF10F8AF
:1001A000014BAD1C0C1B09D16D1E58BF01F801CBD2
:1001B000FAD505E014F8016B01F8016B6D1EF9D555
:1001C0009142D6D37047000000230024002500266A
:1001D000103A28BF78C1FBD8520728BF30C148BFAA
:1001E0000B6070476E2904F08986702904F0D98469
:1001F000662906F0E085652906F0DD85672906F0A9
:10020000DA856129AFF3008003681B0A28BF41F03B
:100210008001692904F04A84642904F0478475291F
:1002200004F044846F2905F07981782904F0A584CD
:10023000E92905F01381E42905F01081F52905F07D
:100240000D81EF2905F07681F82904F0A484036874
:10025000DB0928BF41F08001632905F00982732979
:1002600005F00E82E32905F01982F32905F01E82BC
:10027000002070471FB505F067F904000020002139
:1002800005F012FF401C60600020002105F0F6FE22
:10029000E0601FBD10B510BD05F0A2FA1146FFF7D2
:1002A000E9FF00F009F805F0C9FA03B4FFF7F2FF1F
:1002B00003BC02F011F90000ACB0002440F2DC569F
:1002C000AA208DF830008DF83100F1208DF8320031
:1002D00008208DF8330002F061F84FF4A06002F0BE
:1002E00075FA4FF4E13002F005F94FF4E13002F015
:1002F00093F900F01FFC01F0C3FF00F035FC41F65C
:100300001F4141F2873000F0CDFC472144F61F60C9
:1003100000F01CFD01F07CF901F011F8FE48082303
:10032000802200210090084601F037F900F090FD8E
:100330000CAAFA49FA4801F035FD01228021F7485C
:10034000001F03F03FFE01F0D2FA01F069FD01F059
:10035000B1FF01F06EFE05E0F2A004F085FB012084
:1003600002F07DF8002001F0D5FC0028F4D1F3A0C4
:1003700004F07AFB012002F072F80120F4490860D1
:100380004FF4967002F047F80020F249C1F88C0152
:1003900000F0D5FFAAE2002000F0FDFB0546052D88
:1003A00006D1601CC4B200F0CAFF072C00D10024A3
:1003B000002C4ED11021E84802F069FB0790102074
:1003C0000123009000214020079A01F04EF82021DF
:1003D000E14802F05CFB079010200123009002210D
:1003E0002020079A01F041F84021DB4802F04FFB42
:1003F000079010200123009002216020079A01F04D
:1004000034F88021D44802F042FB079010200123E9
:10041000009004214020079A01F027F81021CF48CE
:1004200002F035FB079010200123009006212020C8
:10043000079A01F01AF82021C84802F028FB07901B
:1004400010200123009006216020079A01F00DF88A
:100450004CE2012C1AD11023C1A20021084601F060
:1004600048F801F0DBFE2890289806F061FA024671
:100470000B46CDE90601BDA11BA804F001FB10232A
:100480001BAA0221002001F034F82FE2022C2FD108
:100490001023B9A20021084601F02BF83146B948D3
:1004A00003F04AFC40F2DC51B64803F047FC40F24E
:1004B000DC51B44803F044FC40F2DC51B14803F095
:1004C00041FC3246B0A11BA804F0DAFA10231BAAA3
:1004D0000221002001F00DF8032D03D1A6F16400E4
:1004E00086B203E2042DB3D106F1640086B2FDE1C9
:1004F000032C7DD11023A7A20021084600F0F9FFAC
:10050000C221E32000F0F4FD2A902A9806F014F8A6
:10051000A44AA54BCDE9000106F022F80022A34B26
:10052000CDE9020105F0B0FE0022A14BCDE90401A6
:1005300006F016F8CDE9060105F0CCFD83465846D5
:1005400006F0F6F902460B46CDE9060199A11BA873
:1005500004F096FA10231BAA0221002000F0C9FF24
:10056000D221E32000F0C4FD2A902A9805F0E4FF90
:100570008C4A8D4BCDE9020105F0F2FF00228B4B36
:10058000CDE9040105F080FECDE9060105F0A2FDEC
:100590008346584606F0CCF902460B46CDE90601E3
:1005A00084A11BA804F06CFA10231BAA022140208E
:1005B00000F09FFFE221E32000F09AFD2A902A98A4
:1005C00005F0BAFF774A784BCDE9020105F0C8FF84
:1005D0000022764BCDE9040105F056FECDE9060177
:1005E00005F078FD8346584606F0A2F9024600E081
:1005F00037E00B46CDE906016EA11BA804F040FAD6
:1006000010231BAA0421002000F073FFF221E32035
:1006100000F06EFD2A902A9805F08EFF614A624B29
:10062000CDE9020105F09CFF0022604BCDE90401F9
:1006300005F02AFECDE9060105F04CFD834658463B
:1006400006F076F902460B46CDE9060159A11BA832
:1006500004F016FA10231BAA0421402000F049FFE1
:1006600044E1042C46D1102354A20021084600F096
:1006700040FF0A21002001F076FE299053A11BA81B
:10068000299A04F0FDF910231BAA0221002000F092
:1006900030FF0A21012001F066FE29904BA11BA822
:1006A000299A04F0EDF910231BAA0221402000F042
:1006B00020FF0A21022001F056FE299043A11BA829
:1006C000299A04F0DDF910231BAA0421002000F070
:1006D00010FF0A21032001F046FE29903BA11BA830
:1006E000299A04F0CDF910231BAA0421402000F020
:1006F00000FFFBE0052C0ED1102335A20021084697
:1007000000F0F7FE3548008800F400400028A7D02C
:100710003248008864E081E09503002004380140FD
:100720004400024031323932BCC4B4E6C6F7C9E8ED
:10073000D6C3CAA7B0DC0D0A00000000BCC4B4E6F2
:10074000C6F7C9E8D6C3B3C9B9A60D0A00000000B0
:100750008C012242000022420008014000100140AA
:1007600047593930365F54455354000074656D70F5
:100770003A252E336600000050574D5F54455354C0
:10078000000000000008004050574D3A256420202A
:1007900000000000414453313131355F544553541A
:1007A00000000000FCA9F1D24D622040E0FFEF40C4
:1007B00000408F40252E3366000000004D43555FFA
:1007C0004144435F54455354000000002564000039
:1007D00055415254345F544553540000C207002021
:1007E000C0F30D0942A001F0A3FF00270DE0464829
:1007F000C15D464803F022FC00BF4021434803F09E
:100800008BFC0128F9D1781C87B24F45EFDB40A063
:1008100001F08EFF00204049088067E0062C65D17A
:1008200010233EA20021084600F063FE3F480078F6
:1008300000285BD03E48C07800043D49097940EA71
:1008400001203B49497908430A90394880790004DE
:100850003749C97940EA01203549097A08430B90A4
:100860000A9801F080FA08900B9801F07CFA099040
:1008700008980A9009980B900A98000E8DF8340099
:100880000A98000C8DF835000A98000A8DF8360099
:100890000A98C0B28DF837000B98000E8DF838001A
:1008A0000B98000C8DF839000B98000A8DF83A006F
:1008B0000B98C0B28DF83B004FF0000809E00CA87F
:1008C00010F80800504400F0FF0A08F1010000F0A1
:1008D000FF08B8F10C0FF2DB8DF83CA00D21154894
:1008E00001F092FA002011490870824653E5000099
:1008F0000D0AC4FAB7A2CBCDB5C4CFFBCFA2CEAA06
:100900003A0D0A0D0A000000B5080020004C004016
:100910000D0A0D0A00000000C207002041445331B7
:100920003239325F5445535400000000B4070020B0
:10093000E407002044000240704700BFFEE700BF0C
:10094000FEE700BFFEE700BFFEE770477047704755
:10095000704700000CB50020019000906C480068C2
:1009600040F480306A49086000BF6948006800F4BC
:10097000003000900198401C0190009818B901982F
:10098000B0F5A06FF1D16248006800F4003010B1FA
:100990000120009001E0002000900098012843D140
:1009A0005C48006840F010005A490860084600683A
:1009B00020F0030008600846006840F0020008606C
:1009C00053484068524948600846406848600846B5
:1009D000406840F4806048600846406820F47C101D
:1009E00048600846406840F4E810486008460068DF
:1009F00040F08070086000BF4548006800F000705B
:100A00000028F9D04248406820F00300404948607F
:100A10000846406840F00200486000BF3C4840681B
:100A200000F00C000828F9D10CBD10B5FFF792FFBB
:100A300010BD10B53648006840F001003449086028
:100A40000846406834490840314948600846006813
:100A5000324908402E4908600846006820F480208A
:100A600008600846406820F4FE0048604FF41F000C
:100A70008860FFF7DAFF4FF000602949086010BD79
:100A800010B5002100200022214B5B6803F00C010F
:100A900021B1042906D0082928D107E0214B224C96
:100AA000236027E01F4B204C236023E0184B5B683A
:100AB00003F47010164B5B6803F48032022303EBDF
:100AC000904022B9194B4343174C23600DE0104B63
:100AD0005B6803F4003323B1144B4343124C23608F
:100AE00003E0104B4343104C236003E00D4B0E4CCE
:100AF000236000BF00BF064B5B68C3F303130C4CBD
:100B0000E15C094B1B68CB40074C236010BD000023
:100B100000100240002002400000FFF8FFFFF6FE38
:100B200008ED00E000127A000000002000093D00FE
:100B30000400002008B50121102002F0D1F907209F
:100B4000ADF8000010208DF8030003208DF802009E
:100B50006946044801F008FF0721024801F0B1FF8F
:100B600008BD00000010014008B50121142002F06A
:100B7000B7F9F020ADF8000048208DF80300694671
:100B8000454801F0F1FE3020ADF8000069464348C9
:100B900001F0EAFE08BD10B5044614B10120404939
:100BA00008703F48007800284ED010213A4801F0E4
:100BB0006EFFC0B12021384801F069FF98B1402193
:100BC000354801F064FF70B18021334801F05FFFC8
:100BD00048B11021314801F05AFF20B120212F489F
:100BE00001F055FF78BB0A2001F015FC00202C49CC
:100BF00008701021284801F04AFF08B9012010BDF3
:100C00002021254801F043FF08B90320F7E74021E0
:100C1000214801F03CFF08B90420F0E780211E487C
:100C200001F035FF08B90220E9E710211B4801F067
:100C30002EFF08B90520E2E72021184801F027FF20
:100C400040BB0620DBE7FFE71021134801F01FFF40
:100C500001281FD12021104801F019FF012819D1C6
:100C600040210D4801F013FF012813D180210A48CB
:100C700001F00DFF01280DD11021084801F007FFF8
:100C8000012807D12021054801F001FF012801D1E9
:100C9000034908700020B2E700080140001001403D
:100CA000140000207FB505460C460121022002F009
:100CB00024F9ADF80850ADF804400020ADF80A0062
:100CC000ADF8060001A94C4802F042FA0122114693
:100CD000494802F0B4FD1D208DF8000000208DF879
:100CE000010003208DF8020001208DF80300684602
:100CF00001F071FD0121404802F086FD7FBD10B575
:100D000001213D4803F049F8F8B101213A4803F0C8
:100D100055F83A48006808B9012000E0002037493A
:100D200008603748D0F8880108B9012000E00020A9
:100D30003249083108603248D0F8840108B90120EE
:100D400000E000202D49091D086010BD30B589B0B4
:100D500005460C460121042002F0CFF801210920AC
:100D600002F0BEF84FF47070ADF8200018208DF836
:100D7000230003208DF8220008A9224801F0F4FD89
:100D8000ADF81850ADF814400020ADF81A00ADF8D9
:100D9000160005A91C4802F0DBF97020ADF804002C
:100DA0000120ADF806000220ADF80C0001A916489C
:100DB00002F00BFA0821144802F056FE01A912486D
:100DC00002F045FA0821104802F057FE01A90E482A
:100DD00002F08AFA08210C4802F05CFE01A90A48D8
:100DE00002F0CDFA0821084802F05DFE0121064814
:100DF00002F00AFD09B030BD00040040800122422B
:100E000000002242000C01400008004000BF411ECB
:100E100089B2081EFBD170470022002107E042F68C
:100E2000E06200E0521E002AFCD14B1C99B28142C4
:100E3000F5DB70470022002107E0482201E0531E45
:100E40009AB2002AFBDC4B1C99B28142F5DB704759
:100E500008B50121302002F043F80420ADF800006D
:100E600003208DF8020014208DF803006946B24873
:100E700001F07AFD4FF48050ADF8000003208DF8AA
:100E8000020014208DF803006946AC4801F06CFDA7
:100E90000120AB490860AB49C1F888010520FFF784
:100EA000BBFF08BD10B50120A54908600520FFF76C
:100EB000ADFF0120A349C1F888010520FFF7A6FF77
:100EC00000209F4908600520FFF7A0FF00209D49F2
:100ED000C1F888010520FFF799FF10BD10B500206B
:100EE000974908600520FFF791FF01209549C1F857
:100EF00088010520FFF78AFF01209149086005203D
:100F0000FFF784FF10BD70B5044600208E490860CD
:100F100000251AE004F0800018B10120884908601B
:100F200002E000208649086001208749086005200A
:100F3000FFF76CFF00208349C1F888010520FFF707
:100F400065FF6006040E681CC5B2082DE2DB0120B7
:100F50007B4908607B49C1F888010520FFF756FFEF
:100F600000207949086070BD70B50024002515E0A7
:100F70000120754908600520FFF748FF6006040E50
:100F80007248D0F8300108B144F0010400206E49E5
:100F900008600520FFF73AFF681CC5B2082DE7DBA3
:100FA0000020694908600520FFF730FF00206749ED
:100FB000C1F8B0010520FFF729FF01206249086050
:100FC0000520FFF723FF00205E49C1F888010520B6
:100FD000FFF71CFF01205A490860204670BDF8B594
:100FE00005460E46002492208DF8000001208DF861
:100FF00001008DF802608DF8035053490860FFF737
:1010000051FF00BF08E01DF80400FFF77CFF0A2035
:10101000FFF7FCFE601CC4B2042CF4DBFFF75EFF9C
:10102000F8BD70B504460D46012047490860FFF73A
:1010300039FF9220FFF767FF0220FFF764FF2012BD
:10104000FFF761FFE0B2FFF75EFFFFF747FFFFF733
:1010500029FF9220FFF757FF0320FFF754FF2812C4
:10106000FFF751FFE8B2FFF74EFFFFF737FF70BD04
:1010700008B500200090012033490860FFF712FFF7
:101080009220FFF740FF0020FFF73DFFFFF726FF0C
:10109000FFF708FF9320FFF736FFFFF765FFADF876
:1010A0000000FFF761FFADF80200FFF717FFBDF882
:1010B0000200BDF8001040EA012080B2ADF8000047
:1010C000BDF8000008BD2DE9F04104460D4600269C
:1010D00029462046FFF783FFFFF7CAFF074605F0C2
:1010E00097FD0646304605F073FD80B2BDE8F081FD
:1010F0002DE9F04707468846002500240CE04146CC
:101100003846FFF7E0FF824605F082FD814629461A
:1011100005F03AFC0546641CB4F5FA7FEFDB2E4679
:1011200000250B49304605F091FC814605F050FD45
:1011300080B2BDE8F08700000014014000100140BB
:10114000B0012242008022428881224200002242D5
:101150000000FA4310B50121FA4801F0B2FC022167
:10116000F84801F0AEFC0221F64801F0ACFC012188
:10117000F44801F0A8FC10BD10B50121F14801F0C0
:10118000A0FC0221EF4801F09EFC0221ED4801F095
:1011900098FC10BD10B50121EA4801F092FC012134
:1011A000E84801F090FC10BD2DE9F04105462C46C1
:1011B0000121E44801F087FC002619E0274607F0EA
:1011C0008007802F04D10221DE4801F07AFC03E081
:1011D0000221DC4801F077FC6006040E0121D948A9
:1011E00001F06FFC0121D74801F06DFC701CC6B204
:1011F000082EE3DBBDE8F08110B50446FFF7AAFF37
:101200007820FFF7D1FFFFF7C5FF0020FFF7CCFFE5
:10121000FFF7C0FF2046FFF7C7FFFFF7BBFFFFF751
:10122000ABFF10BD10B50446FFF794FF7820FFF721
:10123000BBFFFFF7AFFF4020FFF7B6FFFFF7AAFFA6
:101240002046FFF7B1FFFFF7A5FFFFF795FF10BDA1
:1012500070B504460D461DB1E0B2FFF7E3FF02E0B2
:10126000E0B2FFF7C9FF70BD70B50646002418E074
:1012700004F1B0000021FFF7EBFF00210220FFF78F
:10128000E7FF00211020FFF7E3FF002505E0012123
:101290003046FFF7DDFF681CC5B2802DF7DB601C10
:1012A000C4B2082CE4DB70BD06E041F6650100E045
:1012B000491E0029FCD1401E0028F6D17047014686
:1012C00005E0002001E0421CD0B27B28FBDB0A1EB7
:1012D000A1F10101F5D1704770B504460D4605F145
:1012E000B0000021FFF7B4FFA11CC1F3031141F0CE
:1012F00010000021FFF7ACFFA11C01F00F0000213E
:10130000FFF7A6FF70BD10B500218D20FFF7A0FFED
:1013100000211420FFF79CFF0021AF20FFF798FF6A
:1013200010BD10B500218D20FFF792FF0021102085
:10133000FFF78EFF0021AE20FFF78AFF10BD70B5CA
:10134000002418E004F1B0000021FFF781FF002124
:101350000220FFF77DFF00211020FFF779FF002515
:1013600005E001210020FFF773FF681CC5B2802D46
:10137000F7DB601CC4B2082CE4DB70BD70B5002440
:1013800018E004F1B0000021FFF762FF0021022005
:10139000FFF75EFF00211020FFF75AFF002505E050
:1013A00001210846FFF754FF681CC5B2802DF7DB0A
:1013B000601CC4B2082CE4DB70BD2DE9F047074681
:1013C0000E469046994600250024A8F12000C5B29B
:1013D0007F2F02DD0027B01CC6B2B9F1100F24D157
:1013E00031463846FFF778FF002408E004EB05118A
:1013F000554A505C0121FFF72BFF601CC4B2082C3A
:10140000F4DB701CC1B23846FFF766FF002409E028
:1014100004EB051108314C4A505C0121FFF718FF1D
:10142000601CC4B2082CF3DB12E031463846FFF7EB
:1014300053FF00240AE005EB4501444A02EB410159
:10144000085D0121FFF704FF601CC4B2062CF2DB2B
:10145000BDE8F08710B50246012000E050430B1EA6
:10146000A1F10104E1B2F9D110BD2DE9FF5F0746FA
:1014700091461E460E9D4FF0000A002435E0301BB9
:10148000401EC1B20A20FFF7E5FFB9FBF0F00A21C8
:10149000B0FBF1F201FB1208BAF1000F14D1701E7B
:1014A000A04211DDB8F1000F0CD1AB4605EBDB71AA
:1014B000491001FB0471C8B22B4620220199FFF7A5
:1014C0007CFF10E04FF0010AAB4605EBDB714910E1
:1014D00001FB0471C8B208F13001CAB22B46019970
:1014E000FFF76BFF00BF601CC4B2B442C7DBBDE8AE
:1014F000FF9F2DE9F04104460F4615469846002609
:101500000FE0AA5D434639462046FFF756FF04F137
:101510000800C4B2782C02DD0024B81CC7B2701CCD
:10152000C6B2A85D0028ECD1BDE8F0812DE9F041FC
:1015300080460E461546002731464046FFF7CCFE52
:10154000002410E0000C0140E26F0008BA6D0008B2
:10155000724A02EB8511085D0121FFF779FE781CC4
:10156000C7B2601CC4B2102CF2DB701CC1B2404682
:10157000FFF7B2FE00240CE06900491C674A02EB49
:101580004111085D0121FFF763FE781CC7B2601CA2
:10159000C4B2102CF0DBBDE8F0812DE9F05F064607
:1015A0000F4690461C46DDF828A04FF0000BE117CF
:1015B00004EB5171C910A4EBC10131B92046E11708
:1015C00004EB5171C1F3C70506E02046E11704EBB7
:1015D0005171C910491CCDB23D4615E0294630462F
:1015E000FFF77AFEB1460BE059460BF1010B1AF8F2
:1015F00001000121FFF72CFE09F1010000F0FF09B5
:10160000C145F1DB681CC5B2A542E7DBBDE8F09F30
:1016100008B50121082001F063FC0320ADF80000AB
:1016200010208DF8030003208DF8020069463C4825
:1016300001F09AF903213A4801F043FAC82000F07A
:10164000EAFE0021AE20FFF703FE00210220FFF793
:10165000FFFD00211020FFF7FBFD00214020FFF7D8
:10166000F7FD0021B020FFF7F3FD00218120FFF7F7
:10167000EFFD0021FF20FFF7EBFD0021A120FFF788
:10168000E7FD0021A620FFF7E3FD0021A820FFF7DA
:10169000DFFD00213F20FFF7DBFD0021C820FFF721
:1016A000D7FD0021D320FFF7D3FD00210846FFF727
:1016B000CFFD0021D520FFF7CBFD00218020FFF7D3
:1016C000C7FD0021D820FFF7C3FD00210520FFF74B
:1016D000BFFD0021D920FFF7BBFD0021F120FFF75E
:1016E000B7FD0021DA20FFF7B3FD00211220FFF73C
:1016F000AFFD0021DB20FFF7ABFD00213020FFF71D
:10170000A7FD00218D20FFF7A3FD00211420FFF786
:101710009FFD0021AF20FFF79BFD08BD15000020B5
:10172000000C014000B587B00121082001F0D8FB72
:101730000121880301F0E1FB4FF46040ADF818008F
:1017400018208DF81B0003208DF81A0006A92748E1
:1017500001F00AF90020ADF804004FF48270ADF8F2
:1017600006000020ADF80800ADF80A000120ADF831
:101770000C004002ADF80E000020ADF81000ADF8EE
:1017800012000720ADF8140001A9194802F0D2FD9B
:101790000121174802F073FE07B000BD70B5054681
:1017A000002405E0601CC4B2C82C01DD002070BD1F
:1017B00002210F4802F0E7FE0028F3D029460C482A
:1017C00002F08EFE002405E0601CC4B2C82C01DDCE
:1017D0000020ECE70121064802F0D5FE0028F3D0F6
:1017E000034802F07FFEC0B2E1E70000000C0140B8
:1017F0000038004010B504462046FFF7CFFF10BD6B
:101800002DE9F04107460E4615460020F8490860CC
:10181000642000F0DCFD3846FFF7ECFF642000F0A8
:10182000D6FD711EC8B2FFF7E5FF07F0400068B1B2
:10183000002408E0642000F0CAFD2878FFF7DAFFF2
:101840006D1C601CC4B2B442F4DB0DE0002409E05E
:10185000642000F0BCFD0020FFF7CCFF28706D1C59
:10186000601CC4B2B442F3DB642000F0B0FD012080
:10187000DF490860BDE8F08110B504460020DC496E
:101880000860642000F0A3FD2046FFF7B3FF64204A
:1018900000F09DFD0120D749C1F8B00110BD3EB553
:1018A0001120FFF7E9FF642000F0B5FD0620FFF7E7
:1018B000E3FF012000F0D3FD1120FFF7DDFF6420DE
:1018C00000F0A9FD6A460C212020FFF799FFCAA06D
:1018D00003F0CAF8002407E01DF804202146CBA03D
:1018E00003F0C2F8601CC4B20C2CF5DB3EBD08B599
:1018F00001211D2001F0F4FAFFF714FF4FF480508E
:10190000ADF8000001208DF8020010208DF80300D2
:101910006946C04801F028F800F082FABE48006825
:1019200020F04000BC4908600120B1490860FFF781
:10193000B6FF08BD70B504460020AD49086000251B
:1019400006E00020FFF756FF2070641C681CC5B23B
:10195000092DF6DB0120A6490860002070BD732028
:10196000AE4908700020487008464078AC490978B4
:101970000843AA4948700020887008468078A94921
:10198000097840EA8110A549887008468078A54901
:10199000497840EA4110A149887008468078A149F9
:1019A000897840EA01109D498870084680789D49F1
:1019B000C97840EAC10099498870084680789949F9
:1019C000097940EA4100954988700846807840F0DE
:1019D000810088701020C8700020087108460079C6
:1019E0009149097840EAC1108C490871084600798C
:1019F0008D49497840EA0110884908710846007904
:101A0000894989780843854908710020487108464A
:101A100040798649097840EAC110804948710846F2
:101A200040798249497840EA01107C49487108466A
:101A300040797E4989780843784948710020887147
:101A4000084680797A49097840EA411073498871DB
:101A5000084680797649497840EA01106F498871D3
:101A6000084680797249897840EAC1006B498871DB
:101A7000084680796E49C97840EA810067498871D3
:101A8000084680796A49097940EA410063498871CA
:101A90000846807966494979084360498871084653
:101AA000807940F0C00088710020C8710846C07974
:101AB0006049097840EA41105849C8710846C07920
:101AC0005C49497840EA01105449C8710846C07918
:101AD0005849897840EAC1005049C8710846C07920
:101AE0005449C97840EA81004C49C8710846C07918
:101AF0005049097940EA41004849C8710846C0790F
:101B00004C49497908434549C87100200872487218
:101B10000846407A4849097840EAC1103F4948726E
:101B20000846407A4449497840EA81103B49487266
:101B30000846407A4049897840EA8100374948722E
:101B40000846407A3C49C9780843344948720846F7
:101B5000407A40F002004872002088720846807A7D
:101B60003649097840EAC1102C4988720846807AC3
:101B70003249497840EA8100284988720846807ACB
:101B80002E49897840EA4100244988720846807AC3
:101B900040F0010088720C20C87270473EB50025E5
:101BA000FFF7DDFE1D4A521C0B214120FFF728FEE6
:101BB0000A2000F030FC6A460C212020FFF720FEAE
:101BC0000A2000F028FC1EA002F04EFF002407E0CF
:101BD0001248025D21460DA002F046FF601CC4B20F
:101BE0000C2CF5DB1AA002F03FFF00244EE00000B1
:101BF000B081214200802142726561642064656683
:101C000061756C74205245473A0D0A002564202501
:101C1000780D0A00000C014000040140D8070020A4
:101C200095070020960700209B0700209E070020B4
:101C3000A1070020A7070020AD070020B107002062
:101C40005752495445205245473A0D0A00000000BA
:101C500052454144205245473A0D0A004448005D30
:101C60001DF80410884207D02CB1082C03D00B2C8F
:101C700001D0012500E007E01DF804202146AFF265
:101C8000740002F0F1FE00BF601CC4B20C2CE5DB56
:101C90001DB938A002F0E8FE02E03BA002F0E4FE2D
:101CA00028463EBD10B5002401203B49087105209F
:101CB0003A4988703A498870FFF770FF00B10124F3
:101CC0000A2000F0A8FB204610BD10B5002400201B
:101CD0003149087101203149887031498870FFF716
:101CE0005DFF00B101240A2000F095FB204610BDE5
:101CF00010B5002400202849087128498870284917
:101D00008870FFF74BFF00B101240A2000F083FB2D
:101D1000204610BD70B505460A2000F07CFB25B1B9
:101D2000012D06D0022D0CD107E0FFF7E1FF04469C
:101D300007E0FFF7B7FF044603E0FFF7C6FF0446DE
:101D400000BF00BF0CB1012070BD1020FFF794FD53
:101D50000A2000F060FB0820FFF78EFD0A2000F04B
:101D60005AFB0020F0E701460846000200127047C7
:101D7000D807002052454720777269746520737533
:101D800063636573730D0A00524547207772697467
:101D900065206572720D0A00960700209B070020DF
:101DA0009E07002070B504460E4615461B48406944
:101DB00040F00100194948610A2000F02CFBA660A0
:101DC000E560002020602068206020682060206896
:101DD0002060206840F010002060206820602068AB
:101DE0002060206840F0800020602068206020682B
:101DF00020602068206020682060206820602068C3
:101E000020602068206070BD026822F0010202603C
:101E10004160026842F00102026070470010024017
:101E20001FB50121112001F05BF84020ADF80C0036
:101E300048208DF80F0003A91C4800F095FD4020B4
:101E400002F049FA0621022000F0A4FE4020019091
:101E500000208DF808000C208DF8090001208DF875
:101E60000A0001A802F0C0F917208DF80000012037
:101E70008DF801008DF802008DF80300684600F02F
:101E8000AAFC1FBD10B50A48006800F0400058B118
:101E90000848006840B9402002F01DFA0648FFF7E4
:101EA00049FD01200549087010BD000000100140E7
:101EB0000004014018012242E4070020B40700207A
:101EC000002107E0002201E0531C9AB28242FBDBB2
:101ED0004B1C99B20429F5DB704700B54FF4007034
:101EE000E14908610520FFF7EBFF4FF48070DF49FF
:101EF00008600520FFF7E4FF4FF40070DA494861FD
:101F00000520FFF7DDFF4FF48070D849091D0860F8
:101F10000520FFF7D5FF00BD00B54FF48070D34911
:101F2000091D08600520FFF7CBFF4FF40070CE4974
:101F300048610520FFF7C4FF4FF48070CB4908606B
:101F40000520FFF7BDFF4FF40070C749086100BDD1
:101F500010B54FF40070C44908610220FFF7B0FFCC
:101F60004FF48070C14908600520FFF7A9FFBE4803
:101F7000806800F4007008B1012400E000244FF4F0
:101F80008070BA49091D08600320FFF799FF2046B9
:101F900010BD10B5044624B94FF40070B249486131
:101FA00003E04FF40070B04908610220FFF788FF9A
:101FB0004FF48070AD4908600620FFF781FF4FF4B1
:101FC0008070AA49091D08600320FFF779FF10BD42
:101FD000F0B5044608250CE004F0800008B10126A5
:101FE00000E000263046FFF7D4FF6006040E681EAE
:101FF000C5B2002DF0D1FFF7ABFF07463846F0BD64
:1020000070B5064608250DE0FFF7A2FF20B1600677
:10201000040E44F0010403E06006040E04F0FE0424
:10202000681EC5B2002DEFD13046FFF7B2FF204643
:1020300070BD08B50121182000F052FF4FF48070E8
:10204000ADF8000014208DF8030003208DF8020085
:1020500069468648103800F087FC4FF40070ADF8F0
:10206000000014208DF8030003208DF8020069465B
:102070007D4800F079FC4FF480707C490860400096
:102080007949086108BDFCB502462F2300BF002036
:102090008DF805008DF804008DF803008DF802001E
:1020A00001208DF8010007208DF800002F23002566
:1020B0000521002409E0581EC3B2072C02DA601C77
:1020C000C4B202E00024481EC1B2505C8027274100
:1020D000384008B90029EEDCA3F10800C5B21EE0C3
:1020E000052118E0481E1DF8000000F0800018B11E
:1020F000002901DD012600E000261DF80100400650
:10210000000E0DF801001DF801003044C0B20DF8BA
:102110000100481EC1B2FF29E4DB681EC5B2002DD4
:10212000DED1002106E0505C1DF80170784050546B
:10213000481CC1B20529F6DD082BA8DC1078FCBDCF
:102140002DE9FC4F04460D464FF00009CA46CB4628
:102150006006040E00BF00BFFFF7DEFEABF101001A
:1021600000F0FF0BBBF1000F00D136E0FFF7B5FE2A
:102170002046FFF72DFF00B1EEE72846FFF728FFC6
:1021800000B1E9E7FFF7A9FE611CC8B2FFF720FF25
:1021900000B1E1E70020FFF733FF81460020FFF7A1
:1021A0002FFF82460120FFF72BFF8046FFF7B4FE8A
:1021B0008DF805408DF80450601CC0B28DF8030006
:1021C0008DF802908DF801A000208DF8000068467F
:1021D000FFF759FF06464645BDD100BF49EA0A2729
:1021E0003846BDE8FC8F2DE9F05F07210020FFF79E
:1021F000A7FF834604F0A0F980461D4A1D4B04F05A
:10220000AFF906464FF066321B4B04F0A7FA0446BE
:1022100003F060FF82465046BDE8F09F2DE9F0478D
:102220000024A14600BF00BF08E0FFF7DCFF054621
:10223000214604F0A9FB044609F10109B9F10A0F8E
:10224000F3DB204604F074FB074600220B4B04F03E
:102250001BF8054603F03EFF0446642000F0DBF85F
:102260002046BDE8F0870000001001401008014042
:102270007B14AE47E17A943F66127140000024401F
:1022800008B50121102000F02BFE0820ADF8000059
:1022900010208DF8030003208DF8020069460448E1
:1022A00000F062FB0821024800F00DFC08BD0000B0
:1022B0000010014000B587B001214FF4017000F01B
:1022C0000FFE4FF4004000F06FFD0F20ADF804004A
:1022D00000208DF8070001A92E4800F045FB2E488C
:1022E00002F088F9002002908DF80C008DF80D00A6
:1022F0004FF4602004900020059001208DF8180014
:1023000002A9254802F09DF90121234802F0C5F9F0
:10231000214802F0E4F900BF1F4802F0E5F9002867
:10232000FAD11D4802F0EAF900BF1B4802F0EBF9B0
:102330000028FAD107B000BD10B5044607230122DA
:102340002146154802F015FA0121134802F0E5F97B
:1023500000BF0221104802F051FB0028F9D00E48BE
:1023600002F06EFA10BD2DE9F04107460C4600253B
:10237000002608E03846FFF7DFFF0544052000F09F
:102380004AF8701CC6B2A642F4DBB5FBF4F080B28A
:10239000BDE8F081000801400024014010B56FF055
:1023A000040000F062FA484800684849B0FBF1F0C8
:1023B000474908700846007800EB4001C1EBC010A7
:1023C0004FF6FF7101EAC0004249088010BD014686
:1023D0003F4A12784A434FF0E0235A6100229A6143
:1023E0001A46126942F001021A6100BF4FF0E02262
:1023F000106900F001021AB100F48032002AF5D011
:102400004FF0E022126922F001024FF0E0231A613E
:1024100000229A61704701462E4A12884A434FF0C3
:10242000E0235A6100229A611A46126942F00102C1
:102430001A6100BF4FF0E022106900F001021AB1EA
:1024400000F48032002AF5D04FF0E022126922F029
:1024500001024FF0E0231A6100229A61704710B523
:102460000446642104FB01F0FFF7D5FF642104FB5F
:1024700001F0FFF7D0FF642104FB01F0FFF7CBFF71
:10248000642104FB01F0FFF7C6FF642104FB01F0A7
:10249000FFF7C1FF642104FB01F0FFF7BCFF6421DB
:1024A00004FB01F0FFF7B7FF642104FB01F0FFF725
:1024B000B2FF642104FB01F0FFF7ADFF642104FBD0
:1024C00001F0FFF7A8FF10BD0000002000127A0005
:1024D000B6070020B807002000BF704700BF4A4A77
:1024E000128802F04002002AF9D0C2B2464B1B1DEE
:1024F0001A80704710B586B00446012144F20400EA
:1025000000F0EEFC4FF40070ADF8140003208DF8DD
:10251000160018208DF8170005A93C4800F024FA91
:102520004FF48060ADF8140004208DF8170005A961
:10253000364800F019FA25208DF8000003208DF8A8
:1025400001008DF8020001208DF80300684600F0BC
:1025500042F901940020ADF80800ADF80A00ADF88A
:102560000C00ADF810000C20ADF80E0001A92648B3
:1025700001F06BFC012240F22551234801F0FDFCE3
:102580000121214801F0EDFC06B010BD10B540F26C
:1025900025511D4801F0D6FD10B31B4801F052FD36
:1025A000C4B21B48008800F40040C8B9184800882D
:1025B00000F4804060B10A2C03D000201449088048
:1025C00020E01348008840F400401149088019E0D9
:1025D0000D2C06D10E48008840F480400C4908803C
:1025E00010E00B480088C0F30D000A490C5408485D
:1025F0000088401C0649088008460088C72801DD7D
:102600000020088010BD0000003801400008014093
:10261000C0070020ED07002010B586B00446012158
:10262000C80400F06AFC0121102000F059FC4FF4AE
:102630008060ADF8140003208DF8160018208DF886
:10264000170005A94C4800F08FF94FF40060ADF871
:10265000140004208DF8170005A9474800F084F9FC
:1026600034208DF8000003208DF801008DF8020061
:1026700001208DF80300684600F0ADF801940020B9
:10268000ADF80800ADF80A00ADF80C00ADF8100088
:102690000C20ADF80E0001A9384801F0D6FB01224C
:1026A00040F22551354801F068FC0121334801F022
:1026B00058FC06B010BD10B540F225512F4801F06E
:1026C00041FD10B32D4801F0BDFCC4B22C48008878
:1026D00000F40040C8B92A48008800F4804060B186
:1026E0000A2C03D000202649088020E024480088D6
:1026F00040F400402249088019E00D2C06D1204802
:10270000008840F480401E49088010E01C48008882
:10271000C0F30D001B490C5419480088401C18498F
:10272000088008460088C72801DD0020088010BD09
:102730000FB438B505A800901348009A049902F028
:1027400081F900200090104802F0FAFA85B20024C6
:102750000DE000BF4021094801F0DEFC0028F9D05F
:102760000948015D054801F069FC601C84B2AC4277
:10277000EFDB38BC5DF814FB00100140004C00405A
:10278000C2070020B50800207D09002009488047C5
:1027900009480047FEE7FEE7FEE7FEE7FEE7FEE743
:1027A000FEE7FEE7FEE7FEE704480549054A064B5B
:1027B00070470000330A000831010008A80A002011
:1027C000A8100020A80C0020A80C002031490143CB
:1027D000314A1160704770B5002100230F22C47880
:1027E00004B32D4C246804F4E064C4F5E064210AC9
:1027F000C1F10403CA40447804FA03F18478144018
:1028000021430901254C0678A155047804F01F05E1
:102810000124AC4005786D11AD0005F1E025C5F847
:10282000004109E0047804F01F050124AC401C4D70
:102830000678761145F8264070BD1A4A0A400243D0
:10284000154B1B1F1A60704739B1134A121D1268CD
:102850000243114B1B1D1A6006E00F4A121D12683D
:1028600082430D4B1B1D1A607047042808D14FF09E
:10287000E021096941F004014FF0E022116107E015
:102880004FF0E021096921F004014FF0E0221161CD
:10289000704700000000FA050CED00E000E400E0E5
:1028A00080E100E080FFFF1F10B50446CC48844261
:1028B00008D10121042000F02DFB0021042000F0AC
:1028C00029FB46E0C748844208D10121082000F0D6
:1028D00021FB0021082000F01DFB3AE0C2488442A1
:1028E00008D10121102000F015FB0021102000F07C
:1028F00011FB2EE0BD48844208D10121202000F0C8
:1029000009FB0021202000F005FB22E0B8488442AA
:1029100008D10121402000F0FDFA0021402000F004
:10292000F9FA16E0B348844208D10121802000F072
:10293000F1FA0021802000F0EDFA0AE0AE4884426E
:1029400007D10121801500F0E5FA0021A01500F063
:10295000E1FA10BD10B50121084600F0DBFA0021B4
:10296000012000F0D7FA10BD2DE9F0410246002504
:102970000026002000230024002791F803C00CF05B
:102980000F0591F803C00CF0100CBCF1000F03D040
:1029900091F802C04CEA050591F800C0BCF1000FA7
:1029A00031D0146800202BE04FF0010C0CFA00F33A
:1029B000B1F800C00CEA03069E4220D183004FF01C
:1029C0000F0C0CFA03F7BC4305FA03FC4CEA0404B1
:1029D00091F803C0BCF1280F06D14FF0010C0CFA9E
:1029E00000FCC2F814C00AE091F803C0BCF1480F23
:1029F00005D14FF0010C0CFA00FCC2F810C0401CCD
:102A00000828D1D31460B1F800C0BCF1FF0F34DD49
:102A1000546800202EE000F1080C4FF0010808FA7D
:102A20000CF3B1F800C00CEA03069E4221D18300EA
:102A30004FF00F0C0CFA03F7BC4305FA03FC4CEA09
:102A4000040491F803C0BCF1280F05D100F1080C73
:102A500008FA0CF8C2F8148091F803C0BCF1480FD2
:102A600007D100F1080C4FF0010808FA0CF8C2F881
:102A70001080401C0828CED35460BDE8F0814FF68A
:102A8000FF710180022181700421C17070470246EC
:102A9000002093680B400BB1012000E0002070473C
:102AA0000146886880B2704702460020D3680B4018
:102AB0000BB1012000E0002070470146C86880B2D9
:102AC000704701617047416170470AB1016100E0E0
:102AD00041617047C16070474FF480320A438261A0
:102AE0008161826182698269704702460020434B9E
:102AF00018684FF68073184040EA021008433F4BB5
:102B0000186070473E49C8617047F0B50A46002317
:102B100000240021002500F00046B6F1004F02D14C
:102B2000364EF16901E0354E7168C0F3034583B25A
:102B300000F44016B6F5401F08D121F070612F4E09
:102B4000766826F070662D4F7E6012E000F48016E5
:102B5000B6F5801F06D1032606FA05F4A14341F01D
:102B6000706106E0460D360103FA06F6B14341F006
:102B7000706122B1460D360103FA06F6314300F0CA
:102B80000046B6F1004F02D11C4EF16101E01B4E30
:102B90007160F0BD30B500228B071C0F0F2303FAC4
:102BA00004F2164B08338C1053F824309343134C23
:102BB00008348D1044F8253023468C1053F8243007
:102BC0008C07240F00FA04F423430C4C08348D10B6
:102BD00044F8253030BD0A49DC31086070470000F8
:102BE00000080140000C01400010014000140140A9
:102BF00000180140001C014000200140000001407D
:102C000000002042DF48006840F00100DD49086014
:102C100008464068DC490840DA49486008460068D0
:102C2000DA490840D74908600846006820F4802047
:102C300008600846406820F4FE0048604FF41F001A
:102C400088607047CF49096821F48031CD4A11600E
:102C50001146096821F480211160B0F5803F03D04E
:102C6000B0F5802F0ED106E0C649096841F48031E5
:102C7000C44A116007E0C349096841F4A021C14A70
:102C8000116000E000BF00BF704710B50146002290
:102C9000002300204A11012A02D1BA4C236806E021
:102CA000022A02D1B74C236A01E0B64C636A01F0F4
:102CB0001F02012494401C400CB1012000E00020C0
:102CC00010BD38B5002000900024002500BF312041
:102CD000FFF7DBFF05460098401C00900098B0F518
:102CE000A06F01D0002DF2D03120FFF7CEFF08B148
:102CF000012400E00024204638BD01460020A14AFE
:102D0000106820F0F80040EAC10010607047A04948
:102D100008607047024600209A4B586820F47C10E7
:102D200042EA01031843974B586070479849086678
:102D3000704701460020934A506820F00300084382
:102D4000506070478F48406800F00C0070470146A3
:102D500000208C4A506820F0F00008435060704713
:102D600001460020874A506820F4E0600843506024
:102D7000704701460020834A506820F4605040EAC2
:102D8000C1005060704729B17E4A527A02437D4BA0
:102D90005A7204E07B4A527A82437A4B5A727047E5
:102DA0007B49D8310860704701460020754A506859
:102DB00020F440400843506070470021714A20329F
:102DC0001170704A82F82010012802D004280AD11C
:102DD00004E001216B4A2032117005E00521694AA7
:102DE0002032117000E000BF00BF704769490860E1
:102DF00070476449096A0143624A11627047654934
:102E000044390860704730B50021002200240023B7
:102E10005C4D6D6805F00C0121B1042905D008292D
:102E200023D105E05C4D056022E05B4D05601FE0AD
:102E3000544D6D6805F47012524D6D6805F4803480
:102E4000022505EB92421CB9544D554305600BE039
:102E50004C4D6D6805F400351DB1504D554305606E
:102E600002E04D4D5543056002E04B4D056000BF4B
:102E700000BF444D6D6805F0F0010909484D6B5CD9
:102E80000568DD4045603F4D6D6805F4E061090A65
:102E9000434D6B5C4568DD4085603A4D6D6805F4D7
:102EA0006051C90A3E4D6B5C4568DD40C560354DDB
:102EB0006D6805F44041890B3A4D6B5CC568B5FB04
:102EC000F3F5056130BD29B12E4A526902432D4BFD
:102ED0005A6104E02B4A526982432A4B5A61704777
:102EE00029B1284A92690243264B9A6104E0254A97
:102EF00092698243234B9A61704729B1214AD26972
:102F00000243204BDA6104E01E4AD26982431D4B22
:102F1000DA61704729B11B4AD2680243194BDA6063
:102F200004E0184AD2688243164BDA60704729B130
:102F3000144A12690243134B1A6104E0114A1269E0
:102F40008243104B1A61704712494039086070473C
:102F50000F49C86470470B49C87170470948406AF7
:102F600040F0807007494862704701460020054ADA
:102F700092680A400AB1012000E000207047014930
:102F800088727047001002400000FFF8FFFFF6FE55
:102F9000000042428004424200127A0000093D00D3
:102FA000C4070020D407002010B50446FE48844220
:102FB00008D10121C014FFF7ADFF0021E014FFF795
:102FC000A9FFC4E0B4F1804F08D101210846FFF702
:102FD000AEFF00210120FFF7AAFFB8E0F3488442CA
:102FE00008D101210220FFF7A2FF00210220FFF7F4
:102FF0009EFFACE0EE48844208D101210420FFF797
:1030000096FF00210420FFF792FFA0E0E9488442E8
:1030100008D101210820FFF78AFF00210820FFF7CF
:1030200086FF94E0E448844208D101211020FFF794
:103030007EFF00211020FFF77AFF88E0DF488442FE
:1030400008D101212020FFF772FF00212020FFF787
:103050006EFF7CE0DA48844208D101214014FFF77A
:1030600059FF00216014FFF755FF70E0D5488442F6
:1030700009D10121C804FFF74DFF00214FF40020C2
:10308000FFF748FF63E0D048844209D101210805D9
:10309000FFF740FF00214FF48010FFF73BFF56E0A1
:1030A000CA48844209D101214805FFF733FF0021B6
:1030B0004FF40010FFF72EFF49E0C548844208D1C5
:1030C00001214020FFF733FF00214020FFF72FFFB1
:1030D0003DE0C048844208D101218020FFF727FF4E
:1030E00000218020FFF723FF31E0BB48844208D154
:1030F00001218015FFF71BFF0021A015FFF717FF27
:1031000025E0B648844209D101210804FFF702FFF7
:1031100000214FF48030FFF7FDFE18E0B0488442F4
:1031200009D101214804FFF7F5FE00214FF40030DA
:10313000FFF7F0FE0BE0AB48844208D10121880480
:10314000FFF7E8FE00214FF48020FFF7E3FE10BDFB
:1031500000220288944B98420ED0994B98420BD093
:10316000B0F1804F08D0914B984205D0904B9842D7
:1031700002D0904B984204D14FF68F731A404B887F
:103180001A438D4B984207D08C4B984204D04FF68F
:10319000FF431A40CB881A4302808B8883850B88B3
:1031A0000385814B98420BD0854B984208D08B4BBE
:1031B000984205D08A4B984202D08A4B984201D15E
:1031C0000B7A038601238382704770B500240022A6
:1031D0000023058C4FF6FE7635400584028C8388EB
:1031E000048B4FF68F752C40B51E2C400D882C4358
:1031F000751E2A400D892A434D882A436A4DA842EC
:103200000BD06F4DA84208D0744DA84205D0744D24
:10321000A84202D0734DA84213D14FF6F7752A4049
:103220004D892A434FF6FB752A408D882A434FF675
:10323000FF652B404FF6FF552B408D892B43CD89E1
:103240002B4383800483CD888586028470BD70B54E
:10325000002400220023058C4FF6EF7635400584CC
:10326000028C8388048B48F6FF752C404FF6FF458F
:103270002C400D884FF6FF7606EA05252C434FF6C5
:10328000DF752A400D8906EA05152A434D8806EAAE
:1032900005152A43444DA84202D0494DA8421DD1EC
:1032A0004FF67F752A404D894FF6FF7606EA0515E1
:1032B0002A434FF6BF752A408D8806EA05152A4332
:1032C0004FF6FF352B404FF2FF752B408D8906EAF4
:1032D00085052B43CD8906EA85052B43838004832E
:1032E000CD880587028470BD70B5002400220023BC
:1032F000058C4FF6FF6635400584028C8388848BED
:103300004FF68F752C404FF6FC752C400D882C43E2
:103310004FF6FF552A400D894FF6FF7606EA052540
:103320002A434D8806EA05252A431F4DA84202D0AC
:10333000234DA8421DD14FF2FF752A404D894FF60B
:10334000FF7606EA05252A434FF6FF352A408D8889
:1033500006EA05252A434EF6FF752B404DF6FF750C
:103360002B408D8906EA05152B43CD8906EA051504
:103370002B4383808483CD888587028470BD70B59C
:10338000002200230024058C4EF6FF76354005848C
:10339000038C8488828B48F6FF752A404FF6FF45E0
:1033A0002A400D8820E00000002C0140000400406D
:1033B00000080040000C00400010004000140040D5
:1033C00000340140004C01400050014000540140D5
:1033D00000180040001C0040002000400040014058
:1033E00000440140004801404FF6FF7606EA0525FB
:1033F0002A434DF6FF752B400D8906EA05352B4310
:103400004D8806EA05352B43FA4DA84202D0FA4D05
:10341000A84208D14BF6FF752C408D894FF6FF76F8
:1034200006EA85152C4384808283CD88A0F840501D
:10343000038470BD828B4FF2FF331A408283828BEC
:103440004FF6FF7303EA01231A4382837047F0B5F6
:103450000C461546002200210026078C4EF6FF7C04
:1034600007EA0C070784828B018C4FF6FF7707EA87
:10347000043640F6FF473A404FF6FF7707EA052744
:103480003A434FF6FF7707EA03373A43D94FB8423A
:103490000ED0D94FB8420BD0B0F1804F08D0D74FE3
:1034A000B84205D0D64FB84202D0D64FB84206D166
:1034B0004DF6FF77394046F48057394305E047F62B
:1034C000FF57394044F48057394382830184F0BD6B
:1034D000828B4FF6F3731A408283828B0A43828376
:1034E0007047F0B50C461546002200210026078CD7
:1034F0004FF6FF6C07EA0C070784828B018C4FF6AE
:10350000FF7707EA04264FF60C773A404FF6FF772D
:1035100007EA03172F433A43B64FB8420ED0B64FCF
:10352000B8420BD0B0F1804F08D0B44FB84205D0AC
:10353000B34FB84202D0B34FB84206D14FF6FF574F
:10354000394046F48077394305E04FF2FF57394060
:1035500044F48077394382830184F0BD028B4FF2BB
:10356000FF331A400283028B4FF6FF7303EA0123F5
:103570001A4302837047F0B50C461546002200211D
:103580000026078C4FF6EF7C07EA0C070784028BB6
:10359000018C4FF6FF7707EA041640F6FF473A40E2
:1035A0004FF6FF7707EA03373A434FF6FF7707EA0C
:1035B00005273A438F4FB8420ED08F4FB8420BD0F9
:1035C000B0F1804F08D08D4FB84205D08C4FB84233
:1035D00002D08C4FB84206D14FF6DF77394046F023
:1035E0001007394305E04FF65F77394044F0100784
:1035F000394302830184F0BD028B4FF6F3731A4006
:103600000283028B0A4302837047F0B50C461546CD
:1036100000220021068C4FF6FE773E400684028B86
:10362000018C4FF60C7632407E1C06EA03162E43C0
:103630003243704EB0420ED06F4EB0420BD0B0F15C
:10364000804F08D06D4EB04205D06D4EB04202D0D2
:103650006C4EB04206D14FF6FD76314044F0010683
:10366000314305E04FF6F576314044F00106314331
:1036700002830184F0BD70B505460C465D48854265
:103680000ED05D4885420BD0B5F1804F08D05B4825
:10369000854205D05A48854202D05A48854200D119
:1036A00000E000BF208850B92389A288618828469D
:1036B000FFF7ABFFE1882846FFF79EFF25E0208853
:1036C00004280AD12389A28861882846FFF753FF7E
:1036D000E1882846FFF742FF17E0208808280AD132
:1036E0002389A28861882846FFF7FBFEE1882846E7
:1036F000FFF7EEFE09E02389A28861882846FFF7DC
:10370000A6FEE1882846FFF795FE70BD2DE9F04141
:1037100005460C4600260127608808B9022600E00D
:103720000026A088012801D1022700E00127208877
:10373000A0B92389A28861882846FFF766FFE1883F
:103740002846FFF759FF23893A4631462846FFF7B6
:1037500012FFE1882846FFF701FF13E02389A288C2
:1037600061882846FFF707FFE1882846FFF7F6FE45
:1037700023893A4631462846FFF747FFE188284625
:10378000FFF73AFFBDE8F0810A884B881A438B881F
:103790001A43CB881A430B891A434B891A438B89E6
:1037A0001A43A0F8442070474FF6FF718180002132
:1037B0000180C180418001727047002101804180F9
:1037C0008180C180018141818181C1817047002157
:1037D00001804180012181800021C18001817047E9
:1037E0000021018041808180C180018141818181EE
:1037F00070470000002C01400034014000040040EC
:1038000000080040000C004021B1028842F0010293
:10381000028004E002884FF6FE731A40028070476F
:1038200031B1B0F8442042F40042A0F8442005E051
:10383000B0F84420C2F30E02A0F8442070471AB139
:1038400083890B43838102E083898B4383817047A3
:103850008182704741EA0203A0F8483070471AB1EC
:1038600083890B43838102E083898B438381704783
:1038700001894FF6F8721140018170470A46002114
:1038800001894FF68F73194011430181704730B59C
:1038900004460D4629462046FFF7F0FF208940F0F8
:1038A0000700208130BD2DE9F04104460D46164643
:1038B0001F46602D06D13B46012231462046FFF7C8
:1038C0005AFE05E03B46012231462046FFF79DFEA9
:1038D00029462046FFF7D2FF208940F007002081CB
:1038E000BDE8F08130B50C4600210189C9B24FF620
:1038F000FF7505EA0325154325432943018130BDA2
:103900002DE9F04105460E461746984600244346E9
:103910003A4631462846FFF7E5FF2C894FF6F87006
:10392000044044F007044FF68F70044044F07004E4
:103930002C81BDE8F081F0B504460D4616461F46C1
:103940003B46324629462046FFF7CCFF208940F40B
:1039500080402081F0BD0185828270470A460021A7
:1039600001884FF68F731940114301807047F0B5FD
:103970000C4615461E460021002200230189028BB9
:10398000038C4FF6F877394021434FF6FC473A4015
:1039900040F201173A434FF6DD773B404FF6FF7791
:1039A00007EA06172F433B43018102830384F0BDDE
:1039B0000A460021018B4FF68F7319401143018392
:1039C00070470A460021018B48F6FF7319404FF6F5
:1039D000FF7303EA02231943018370470A4600215B
:1039E000818B4FF68F7319401143818370470A46CC
:1039F0000021818B48F6FF7319404FF6FF7303EAED
:103A0000022319438183704721B1028842F080026A
:103A1000028004E002884FF67F731A4002807047EC
:103A200021B1828842F00402828004E082884FF64D
:103A3000FB731A408280704721B1828842F00802ED
:103A4000828004E082884FF6F7731A4082807047C4
:103A500021B1828842F00102828004E082884FF620
:103A6000FE731A40828070470A460021018B4FF690
:103A7000F77319401143018370470A460021018BF7
:103A80004FF2FF7319404FF6FF7303EA0223194305
:103A9000018370470A460021818B4FF6F773194066
:103AA0001143818370470A460021818B4FF2FF73D7
:103AB00019404FF6FF7303EA0223194381837047CD
:103AC0000A460021018B4FF6FB7319401143018315
:103AD00070470A460021018B4FF6FF3319404FF61D
:103AE000FF7303EA02231943018370470A4600214A
:103AF000818B4FF6FB7319401143818370470A464F
:103B00000021818B4FF6FF3319404FF6FF7303EA14
:103B100002231943818370470A460021018B4FF627
:103B20007F7319401143018370470A460021018BBE
:103B3000C1F30E014FF6FF7303EA02231943018319
:103B400070470A460021818B4FF67F73194011435D
:103B5000818370470A460021818BC1F30E014FF625
:103B6000FF7303EA02231943818370470A46002149
:103B7000018C4FF6FD7319401143018470470A46CA
:103B80000021018C4FF6F7731940114301847047EF
:103B90000A460021018C4FF6DF7319404FF6FF7380
:103BA00003EA02131943018470470A460021018C7D
:103BB0004FF67F7319404FF6FF7303EA0213194360
:103BC000018470470A460021018C4FF6FF531940CB
:103BD0004FF6FF7303EA02231943018470470A4634
:103BE0000021018C4FF2FF7319404FF6FF7303EA77
:103BF00002231943018470470A460021018C4DF6C7
:103C0000FF7319404FF6FF7303EA0233194301842F
:103C1000704730B5002301248C40A3B2048C9C4330
:103C20000484048C02FA01F5ADB22C43048430BD47
:103C300030B5002304248C40A3B2048C9C4304843C
:103C4000048C02FA01F5ADB22C43048430BD70B58A
:103C50000346002000241846183001258D40ACB2E0
:103C60001D8CA5431D8409B1082909D100EB610011
:103C7000056825F0700505600568154305600EE0D0
:103C80000D1FC5F34E052844056825F4E045056081
:103C900005684FF6FF7606EA02263543056070BDDB
:103CA00021B1028842F00202028004E002884FF64D
:103CB000FD731A400280704721B1028842F004026D
:103CC000028004E002884FF6FB731A4002807047BE
:103CD00021B1828842F08002828004E082884FF61F
:103CE0007F731A408280704702884FF6F7731A403C
:103CF000028002880A430280704782884FF68F73E1
:103D00001A40828082880A438280704702894FF677
:103D1000F8731A40028102890A43028170470289BE
:103D20004FF67F731A40028102890A43028170476D
:103D3000818470478185704781867047018770470D
:103D400081877047A0F84010704702884FF6FF4304
:103D50001A40028002880A43028070470146888E1A
:103D600070470146088F70470146888F70470146AB
:103D7000B1F8400070470146888C70470146088DB5
:103D8000704702460020138A0B400BB1012000E06F
:103D900000207047CA430282704730B502460020B7
:103DA00000230024158A05EA0103958905EA010428
:103DB00013B10CB1012000E0002030BDCA430282E3
:103DC0007047000010B50446FB48844209D1012128
:103DD0008803FFF79FF800214FF48040FFF79AF81F
:103DE00032E0F648844209D101214804FFF79FF8E8
:103DF00000214FF40030FFF79AF825E0F0488442A4
:103E000009D101218804FFF792F800214FF48020A6
:103E1000FFF78DF818E0EB48844209D10121C8046E
:103E2000FFF785F800214FF40020FFF780F80BE042
:103E3000E548844208D101210805FFF778F8002100
:103E40004FF48010FFF773F810BD2DE9F04786B0EE
:103E500005460E460024A24600BFA1460027B089B1
:103E600000B100BF2F462C8A4CF6FF700440F0884A
:103E700004432C82AC894EF6F3100440B08831899B
:103E80000843718908430443AC81AC8A4FF6FF4074
:103E90000440B0890443AC8201A8FEF7B4FFC648D1
:103EA000874202D1DDF810A001E0DDF80CA0A8895E
:103EB00000F4004040B10AEBCA0000EB0A10316880
:103EC0004900B0FBF1F807E00AEBCA0000EB0A106A
:103ED00031688900B0FBF1F86420B8FBF0F0040110
:103EE0002009642101FB1089A88900F4004040B139
:103EF000322000EBC900B0FBF1F000F007000443F2
:103F000008E0322000EB09106421B0FBF1F000F072
:103F10000F0004432C8106B0BDE8F0874FF4165122
:103F2000016000218180C18001810C21418100213B
:103F30008181704710B502460020108A4FF2FF03BE
:103F400018400B884C8823438C882343CC88234318
:103F50001843108210BD0021018041808180C18002
:103F6000704721B1828942F40052828104E0828943
:103F70004DF6FF731A4082817047F0B50346002466
:103F800000260025002040F66A17B94200D100BF84
:103F90001846C1F3421401F01F06012707FA06F57F
:103FA000012C01D10C3004E0022C01D1103000E0D2
:103FB00014301AB107682F43076002E00768AF4367
:103FC0000760F0BD1AB1838A0B43838202E0838AC3
:103FD0008B4383827047028A4FF6F0731A40028245
:103FE000028A0A430282704782894FF2FF731A40A5
:103FF000828182890A438281704721B1828942F09D
:104000000202828104E082894FF6FD731A408281A8
:104010007047028A4FF6DF731A400282028A0A430F
:104020000282704721B1028A42F48042028204E097
:10403000028A4BF6FF731A4002827047C1F30802EE
:104040008280704701468888C0F3080070478189E4
:1040500041F0010181817047028BD2B20283028B51
:1040600042EA012202837047028B02F47F420283FC
:10407000028B0A430283704721B1828A42F02002F8
:10408000828204E0828A4FF6DF731A408282704790
:1040900021B1828A42F01002828204E0828A4FF6C5
:1040A000EF731A408282704721B1828A42F008027F
:1040B000828204E0828A4FF6F7731A408282704748
:1040C00021B1828942F40042828103E08289C2F3F5
:1040D0000E028281704721B1828A42F4006282829C
:1040E00004E0828A4FF2FF731A4082827047828A0C
:1040F0004FF6FB731A408282828A0A43828270479B
:1041000021B1828A42F00202828204E0828A4FF662
:10411000FD731A408282704702460020B1F5007F8D
:1041200000D100BF13880B400BB1012000E000203C
:10413000704701F40072B2F5007F00D100BFCA439E
:104140000280704770B5024600240023002500203D
:1041500040F66A16B14200D100BFC1F3421501F02A
:104160001F03012606FA03F3012D02D1968933407D
:1041700006E0022D02D1168A334001E0968A3340D0
:104180000C12012606FA04F41688344013B10CB15F
:10419000012000E0002070BD10B50022002340F691
:1041A0006A14A14200D100BF0A1201249440A3B2B4
:1041B000DC43048010BD0000003801400044004092
:1041C00000480040004C004000500040002044499E
:1041D0000860091D0860091D0860091D0860414844
:1041E0003F4914310860704700213D498279002A17
:1041F0003AD00A46126803689A430B461A600A1DB1
:10420000126803689A430B1D1A60027911440A6808
:1042100003681A430A60324A0832126803689A43F4
:104220002F4B08331A601A1D126803689A432C4BEF
:104230000C331A604279102A0ED11A1F12680368D3
:104240001A43274B08331A601A1D126803681A4371
:10425000234B0C331A600DE02149427911440A685E
:1042600003681A430A6005E0027911440A6803688A
:104270009A430A6070470021016001710C2141716D
:104280000021817170471649103109680143144AB1
:1042900010321160704701460020114A1432126832
:1042A0000A400AB1012000E0002070470C49143197
:1042B00008607047014600200022094B1B6803EA92
:1042C0000102074B14331B680B4013B10AB10120E4
:1042D00000E0002070470249143108607047000078
:1042E00000040140FFFF0F0010B50446BE488442A1
:1042F00008D101218014FEF70DFE0021A014FEF765
:1043000009FE16E0B948844208D101210014FEF7E5
:104310000EFE00212014FEF70AFE0AE0B448844293
:1043200007D10121C013FEF702FE0021E013FEF7C2
:10433000FEFD10BD10B50022028802F441520B8828
:104340004C8823438C882343CC8823430C89234304
:104350004C8923438C892343CC8923431A4302800D
:10436000838B4FF2FF74234083830B8A038210BD3B
:104370002DE9F04F85B005460C464FF000090227A5
:104380004FF000084FF0010B0026B246A88B4FF209
:1043900040010840A88302202884B5F81C90A0683A
:1043A000022801D100BF38E0A08810B94FF0010BFE
:1043B00001E04FF0020B8D48854200D100E000BFC4
:1043C0006846FEF720FDDDF800A0E088B0F5007F2C
:1043D0000AD14FEA1A2000EB80004000A168B0FB30
:1043E000F1F0401D86B20BE04FEA4B10BAFBF0F043
:1043F00000EB80004000A168B0FBF1F0401D86B2E8
:104400000A20B6FBF0F606F00108A6EB0800C0F3A0
:104410004F074FF6FF7000EA0828022F01DBFF2F3D
:1044200002DD02274FF00008E08840EA0800384328
:104430002884A088A189084361880843218808430B
:1044400040F4006040EA0909A5F81C9005B0BDE8F9
:10445000F08F0021018041808180C18001814181F4
:104460008181C18107210182704700210180418043
:104470008180C1800221816000218181704721B14A
:10448000028842F04002028004E002884FF6BF73C7
:104490001A400280704721B1828B42F4806282838D
:1044A00004E0828B4FF6FF331A408283704730B5A9
:1044B000002400230C110125A540ABB21AB1858858
:1044C0001D43858002E085889D43858030BD1AB1FB
:1044D00083880B43838002E083888B43838070470B
:1044E000818170470146888970474FF6FF6291428B
:1044F00004D0028842F48072028004E002884FF601
:10450000FF631A400280704721B1828842F00402A2
:10451000828004E082884FF6FB731A4082807047E5
:1045200002884FF2FF731A40028002880A43028019
:104530007047018841F480510180704721B10288A1
:1045400042F40052028004E002884DF6FF731A40E4
:104550000280704702460020012901D0108B00E044
:10456000908A70470146088A7047B1F5804F04D1A0
:10457000028842F48042028004E002884BF6FF7316
:104580001A40028070470246002013890B400BB18D
:10459000012000E000207047CA4302817047F0B557
:1045A0000246002000240023002501F00F07012609
:1045B000BE40B4B20B1101269E40B3B2968806EA03
:1045C00003051689264016B10DB1012000E0002038
:1045D000F0BD10B5002201F00F040123A3409AB2F0
:1045E000D343038110BD000000300140003800407B
:1045F000003C004010B50446FA48844208D101212D
:104600004015FEF787FC00216015FEF783FC17E0DC
:10461000F548844208D101210015FEF77BFC0021FA
:104620002015FEF777FC0BE0F048844208D1012109
:10463000C803FEF76FFC00214FF40040FEF76AFC50
:1046400010BD30B50246002000235068E84C2040E1
:104650000D790C6844EA0524204350609068E54CCD
:104660002040D1E902542C434D7944EA45042043CB
:104670009060D06A20F470000C7C641EE4B2234386
:1046800040EA0350D06230BD0021016001714171E8
:104690008160C16001210174704721B1826842F0DC
:1046A0000102826003E0826822F0010282607047AA
:1046B00021B1826842F48072826003E0826822F451
:1046C00080728260704710B50023CBB21AB1446883
:1046D0001C43446002E044689C43446010BD816810
:1046E00041F0080181607047014600208A6802F0AD
:1046F00008020AB1012000E000207047816841F003
:10470000040181607047014600208A6802F00402BB
:104710000AB1012000E00020704721B1826842F414
:10472000A002826003E0826822F4A00282607047E7
:10473000014600208A6802F480020AB1012000E0EC
:104740000020704710B50A4600210023416821F47B
:104750006041531E41EA4331416010BD21B14268BE
:1047600042F40062426003E0426822F40062426068
:104770007047F0B504460D4600200021092D11DDDB
:10478000E068A5F10A0606EB4607072606FA07F1D8
:104790008843A5F10A0606EB460603FA06F108432C
:1047A000E0600CE0206905EB4507072606FA07F1F3
:1047B000884305EB450603FA06F108432061072A02
:1047C0000FDA606B561E06EB86071F2606FA07F106
:1047D0008843561E06EB860605FA06F10843606319
:1047E00022E00D2A0FDA206BD61F06EB86071F2664
:1047F00006FA07F18843D61F06EB860605FA06F18E
:104800000843206310E0E06AA2F10D0606EB86077C
:104810001F2606FA07F18843A2F10D0606EB86066D
:1048200005FA06F10843E062F0BD21B1826842F466
:104830008012826003E0826822F4801282607047F6
:104840000146C86C80B2704766484C3000687047BB
:1048500021B1426842F48062426003E0426822F47F
:1048600080624260704721B1426842F480524260E7
:1048700003E0426822F48052426070470A460021F9
:10488000816821F4E04111438160704721B1826861
:1048900042F40042826003E0826822F400428260B7
:1048A000704721B1826842F40212826003E082689C
:1048B00022F4021282607047014600208A6802F4E6
:1048C00000120AB1012000E000207047F0B5044654
:1048D0001546002000220026092911DDE068A1F11B
:1048E0000A0707EB470C072707FA0CF29043A1F1E0
:1048F0000A0707EB470703FA07F21043E0600CE0F2
:10490000206901EB410C072707FA0CF2904301EBF9
:10491000410703FA07F210432061A06BC0F3015670
:10492000EF1C06F1010CA7EB0C0707EB870C1F2708
:1049300007FA0CF29043EF1C06F1010CA7EB0C07F1
:1049400007EB870701FA07F21043A063F0BD10B52B
:104950000A4600210023816B21F44011531E41EAD5
:104960000351816310BD08B5002300930090009BA4
:104970000B440093009B1A6008BD08B50246002056
:104980000090009201F12800009B184400900098CC
:10499000006880B208BD0A4600214168164B1940E4
:1049A0001143416070474162826270470A460021AC
:1049B000416821F01F0111434160704740B109492E
:1049C0000831096841F40001064A0832116007E025
:1049D00004490831096821F40001024A08321160D3
:1049E000704700000024014000280140003C0140C5
:1049F000FFFEF0FFFDF7F1FFFFFD3FFF0246002045
:104A000013680B400BB1012000E000207047CA433F
:104A10000260704770B502460020002300240B128C
:104A20005568CEB205EA060415681D4015B10CB1F3
:104A3000012000E0002070BD00220A12D343036071
:104A4000704770471CB50C46064B7B446946009086
:104A5000204600F07AFC04460020694600F088FCFD
:104A600020461CBD230900000FB4044910B503AA59
:104A7000029800F083FC10BC5DF814FBBC0700201A
:104A80000FB41CB5084B06AA7B44694600900598F4
:104A900000F05BFC04460020694600F069FC2046FB
:104AA0001CBC5DF814FB0000E50800002DE9F04196
:104AB0000646002410687529314616A510D000F06E
:104AC00089F9002802DA404213A507E031688A0715
:104AD00001D512A502E0490704D511A5012401E082
:104AE00000F081F900210A2206F1240709E0B0FB59
:104AF000F2FCB0FBF2F302FB1C0030307854184695
:104B0000491C0028F3D123462A463046BDE8F0412F
:104B100000F09BB9000000002D0000002B000000F9
:104B200020000000F0B40D460188090502D5214C93
:104B30007C4402E01F4C7C440E34002100F124062A
:104B400008E002F00F071209E75D42EA03721B0951
:104B50007754491C52EA0307F3D102780023120765
:104B600004D5702D06D009B1022311342246F0BCC1
:104B700000F06BB901231034F8E770B504460D4618
:104B80002146106800F02FF9024629462046BDE86C
:104B900070400023C6E7D21D22F00703D3E90023AB
:104BA000C0E70368126843F0200303600823C36171
:104BB0000023B7E79E2A00002DE9F05F89460446EE
:104BC0004FF0000ADFF874B1FB44C0F820A0204683
:104BD000E1688847002874D0252806D0D4E901214F
:104BE0009047206A401C2062F1E700265F4620467D
:104BF000E16888472028054607DB312D05D2781962
:104C000010F8200C08B10643F1E7B00701D526F0F3
:104C10000406C4F81CA00027C4F818A02A2D09D047
:104C2000284601F024FA38B304EB8708303DC8F871
:104C3000185019E059F8041B204604EB87029161D3
:104C4000E1688847012F054618D1E069002820DA7D
:104C500026F020061DE0D8F8180000EB800005EBD8
:104C600040003038C8F818002046E16888470546FB
:104C700001F0FDF90028EED1012F0AD02E2D08D128
:104C80002046E16888477F1C0546022F46F0200633
:104C9000C4DBA069002803DA404246F00106A061A7
:104CA000F00701D026F010066C2D0BD0682D09D02E
:104CB0004C2D39D06A2D35D0742D35D07A2D33D086
:104CC00016E038E0E1682F4620468847B84205469E
:104CD00009D16C2F26D04FF48060E168064320464E
:104CE0008847054604E06C2F1AD04FF480700643C5
:104CF0000DB3A5F14100192802D8203546F400660D
:104D00004A462946204626604E46FBF76BFA80B19C
:104D100001280BD0F61D26F0070000F1080956E720
:104D20004020E4E78020D8E70020D6E706F1040918
:104D30004DE7284652E7206ABDE8F09F2E2A000082
:104D400010B5431C02E010F8011B71B18107FAD1C4
:104D50004FF0013202C88C1A8C4314EAC211F9D008
:104D6000C01A0A0603D0C01E10BDC01A10BD0A0426
:104D700001D0801E10BD0902FCD0401E10BD70473E
:104D800070477047704770B5044685690068C10672
:104D900001D5302600E02026C00707D070BDD4E939
:104DA000012130469047206A401C20626D1EF6D5D6
:104DB00070BD70B5044685690078C00707D170BD25
:104DC000D4E9012120209047206A401C20626D1EFA
:104DD000F6D570BD09684A0501D540B27047C905CE
:104DE000FCD500B2704709684A0501D5C0B27047CA
:104DF000C905FCD580B2704770B50C460546012A3E
:104E000005D02878800600D5EA69002302E0012356
:104E100005E05B1C934202D2E05C0028F9D1A8694E
:104E2000E618C01AA861286A184428622846FFF7C5
:104E3000AAFF04E0D5E9012114F8010B9047B44220
:104E4000F8D32846FFF7B5FF70BD2DE9F0470D46B2
:104E500099469246044600F124080168880604D564
:104E6000E06921F01001216000E00120A84201DD8D
:104E7000471B00E00027A1697A1902EB0900081A14
:104E8000A0612078C00602D42046FFF77CFF0026F0
:104E900008E0D4E901211AF806009047206A401C76
:104EA000761C20624E45F4DB2078C0060AD52046E9
:104EB000FFF769FF06E0D4E9012130209047206A1E
:104EC000401C2062381EA7F10107F4DC07E0D4E99A
:104ED000012118F805009047206A401C2062281E16
:104EE000A5F10105F3DC2046FFF763FF20780006FB
:104EF00002D50220BDE8F0870120FBE711680268B7
:104F0000006A530501D508700AE0D30501D5088071
:104F100006E0130603D5C217C1E9000200E00860ED
:104F20000120704770472DE9FF4F0C461E464FF099
:104F3000FF378BB0D2E90001DDF860800A908A4625
:104F4000C1F30A5505B93D46002108464FF000005F
:104F5000BAF1000F00F4400005DA00EB80004FF4D6
:104F6000400101EA50004FEA9059B9F1010F00DD0C
:104F7000B9460A9850EA4A000ED044F61050A5F2FD
:104F8000FF3545432F14B8F1000F1ED07542291E7E
:104F90001EDDC9F100021CE0B8F1010F4FF0000066
:104FA00001D0302103E0F24305E02154401CB0421F
:104FB000FBDB30460022002121540B99C1F8088008
:104FC000C1E900200FB0BDE8F08FBD1B6D1CDEE70E
:104FD0004A4600DA694206A800F06CFB06AB93E88B
:104FE000070003AB83E8070050460A9900F070FC05
:104FF0008DE80700A0F500501F3800900398002DA1
:1050000009DD42F21F014A46084403A9039068469D
:1050100000F0CFFE08E0A0F500504A461F3803A973
:105020000390684600F0D9FE8DE807000004000CEC
:1050300003D04FF0FF30410800E01046B8F1000FF8
:1050400003D00022009215461EE0751E05D400F024
:105050007FFA303262556D1EF9D5B34601220843FE
:1050600002D000227F1C04E02078302801D10022E9
:105070007F1E002A099786D01DE0112D07DA00F067
:1050800067FA303262556D1C50EA0102F5D10843CF
:1050900002D00098C8B10EE00021681E05E0235C34
:1050A000625C63542254401E491C8142F7DBAB46CC
:1050B000A81B401E0990002004F80B000B98099AC9
:1050C000C0F80880C0E9002B7CE711264FF00008EB
:1050D00059E72DE9F04F88460446D21D22F007011A
:1050E00091B0D1E90001CDE90A0100F0ACFF024620
:1050F0000B98C00F01D02D2007E02068810701D553
:105100002B2002E0202101EAC000032A099001D0EF
:10511000072A05DB03464146204600F05FFA0BE113
:105120002078800601D5E06900E00620B8F1650F1F
:10513000814606D0B8F1660F18D0B8F1670F70D16C
:1051400031E00020B9F1110F009001DB112301E0E3
:1051500009F101030AAA01A90CA8FFF7E4FEDDE9A1
:105160000C70002609F10105834647E001204B46FB
:1051700000904FF000470AAA01A90CA8FFF7D3FE40
:10518000DDE90DB00C995D46002610B909F101006A
:105190000D18B9EB050003D4C0F1FF3609F1010584
:1051A000A5EB09002BE0B9F1010F01DA4FF001097D
:1051B0000020B9F1110F0090484601DD112300E0F5
:1051C00003460AAA01A90CA8FFF7ADFEDDE90C70A1
:1051D0004D4600268346207800070AD4AB4500DA06
:1051E0005D4601A8012D04DD411911F8011C30298B
:1051F00007D04F4502DA17F1040F04DA0120824686
:105200000FE06D1EEEE7002F02DCED1B3E4403E0D5
:10521000781CA84200DD7D1CB81B00F1010A4FF08C
:1052200000472078000703D4AA4501DB4FF0FF3A7E
:105230000021B7F1004F0DF143088DF8431024D041
:1052400002202B23002F01DA7F422D230A21021E88
:10525000A0F1010000DC5FB197FBF1FC97FBF1F2DC
:1052600001FB1C7C17460CF1300C08F801CDEEE771
:10527000A8F1010003702188090501D5452100E04E
:105280006521A0F1010800F8011C09980FA9A1EB04
:105290000807FF1D00B10120411901EBEA70A16967
:1052A0003844081A401EA0612078C00602D4204667
:1052B000FFF769FD099828B1D4E901219047206AD8
:1052C000401C20622078C00622D52046FFF75BFDF7
:1052D0001EE0002E04DBB34502DD01A8805D00E086
:1052E0003020D4E901219047206A401C2062761CBE
:1052F000AAF101005FEA000A0AD100F025F9C068AE
:105300000168405CD4E901219047206A401C20627A
:10531000281EA5F10105DCDC07E0D4E9012118F81D
:10532000010B9047206A401C2062381EA7F101073C
:10533000F3DC2046FFF73DFD032011B043E60000FB
:1053400001694A1C02610878704700B58FB0CDE949
:1053500001310021059105497944CDE90310114639
:105360006846FFF729FC0FB000BD0000E5FFFFFF16
:105370000A6802F8010B0A6070470000074B70B51D
:105380000D467B44FFF7E1FF0446284600F000FA93
:1053900010B14FF0FF3070BD204670BD57D1FFFFF8
:1053A0002DE9FF5F15468A460446DFF8AC80F844D5
:1053B0000027D8E900103E46CDE9001010E03AF889
:1053C00016106A4602A800F0E7F9411C07D02178C0
:1053D000890603D5E269391891420DD80744761C35
:1053E0002078800602D5E069B84205DDAE42E6DBF2
:1053F0003AF816000028E2D1A069C01BA06120463F
:10540000FFF7C1FCD8E90010CDE90010002017E03B
:105410003AF818106A4602A800F0BEF9B0F1FF3F52
:1054200081460BD000250DF1080B05E0D4E90121E0
:105430001BF8050090476D1C4D45F7D308F101009E
:10544000B0428046E4DB206A384420622046FFF701
:10545000B0FCBDE8FF9F00005A2200002DE9F0419A
:105460008046D21D22F007020025D2E90002F5296C
:1054700015A614D0011E72F1000106DA0023D0EB4C
:10548000030063EB020211A608E0D8F800108B07B6
:1054900001D50FA602E0490701D50EA60125114648
:1054A000002408F1240704E000F052F830323A55A5
:1054B000641C50EA0102F7D12B4632462146404691
:1054C000BDE8F041FFF7C1BC000000002D00000066
:1054D0002B0000002000000030B4002100F1240463
:1054E00008E002F00705D208303542EA4372DB08D3
:1054F0006554491C52EA0305F3D10468002310A245
:10550000250708D504F020040C4304D0C469012306
:105510000CA2641EC46130BCFFF797BC10B50446F2
:1055200021461068FFF75FFC02462046BDE81040A8
:105530000023D1E7D21D22F00701D1E90023CBE7F8
:10554000000000003000000000487047680A00209A
:1055500030B5B0F10A024FEA900E71F100034EEA45
:10556000817EB0EB0E0061EB91014FEA101E4EEA16
:10557000017E10EB0E0041EB11114FEA102E4EEAA6
:10558000016E10EB0E0041EB11214FEA104E4EEA76
:10559000014E10EB0E0041EB1141401841F10001AA
:1055A0004FEAD00040EA41704FEAD10110EB80058C
:1055B0004FEA810444EA907444EB01046D1944EB12
:1055C0000404521BA3414FF0000348BF0A3200D528
:1055D00030BD401C41F1000130BD00002DE9F0411B
:1055E0001F46044603260168072A01F4006004DB15
:1055F00008B116A505E016A503E008B115A500E061
:1056000015A521F010002060A069C01EA0610FB197
:10561000401EA0612046FFF7B6FB4FB1D4E901213F
:1056200038469047206A401C2062C01C206206E079
:10563000206AFAE7D4E9012115F8010B9047761E9C
:10564000F8D22046FFF7B5FBBDE8F0814E414E0091
:105650006E616E00494E4600696E660010B5436982
:1056600013B1AFF3008001E0FFF7C6FB012010BDCE
:10567000127800F124010A7000224A700122EDE73D
:1056800011684FF0FF32E9E710B5436913B1AFF38A
:10569000008001E0FFF784FE012010BD128800F1B8
:1056A000240182840022C2840122EDE711684FF0B8
:1056B000FF32E9E72DE9F047814616468AB03348C4
:1056C00078440DC88DE80D0030487844801C03AC48
:1056D0000DC884E80D0041F69B300844372190FB4B
:1056E000F1F290FBF1F5A5F1800501FB12041B3CE2
:1056F00002D56442012000E00020DFF890A080463F
:105700000027FA44AAF1BE0A0DE0E00709D03246AC
:10571000684607EB47010AEB810100F05EFB8DE86C
:10572000070064107F1C002CEFD1184F7F44AC3F62
:1057300018E0E80714D007EB04100DF1180A90E800
:105740000E008AE80E00C068F04201D19819089056
:10575000324606A903A800F040FB03AB83E807002C
:105760006D10641C002DE4D132466946B8F1000F7B
:1057700003A802D000F01DFB01E000F02EFBC9E9F8
:105780000001C9F808200AB0BDE8F087CC1F00006E
:10579000007B00F08000704770B516460C46054649
:1057A00000F044F8036893F80101012806D0FF2CAB
:1057B0000FD8185D68B101202C7070BDD3F80701B7
:1057C0003246214603F2071303442846BDE87040E1
:1057D00018474FF0FF3070BD00487047480A00205E
:1057E0007546FFF7F9FFAE4605006946534620F0BF
:1057F0000700854618B020B5FCF7D6FFBDE820406D
:105800004FF000064FF000074FF000084FF0000B7C
:1058100021F00701AC46ACE8C009ACE8C009ACE82F
:10582000C009ACE8C0098D467047000010B5FFF70D
:105830008BFE001D10BD00BF7108000010B50446AE
:10584000AFF300802046BDE81040FAF72EBD0000FF
:105850004FF0013C50F8042B51F8043B9A4221D1FF
:10586000A2EB0C03934313EACC1317D150F8042B8B
:1058700051F8043B9A4215D1A2EB0C03934313EA6F
:10588000CC130BD150F8042B51F8043B9A4209D1A8
:10589000A2EB0C03934313EACC13DBD04FF00000D0
:1058A000704700BFD01A01BAB1FA81F101F01801B6
:1058B00022FA01F0CB40C1F12001DBB2C0B2C01A24
:1058C0002CFA01F3D11A914311EAC311E6D17047C2
:1058D0005FEA400C08BF91F0000F4FEA8C234FEABB
:1058E000C12243EA51514FEA1C5018BF00F5F04065
:1058F0004FEA300018BF41F000415FEA6C5C00F0F5
:105900002980BCF1FF3F08BF40F080407047130C76
:1059100006BF12044FF0100C4FF0000C130E04BF22
:1059200012020CF1080C130F04BF12010CF1040C4D
:10593000930F04BF92000CF1020CD30F04BF52006E
:105940000CF1010C11464FF00002A0F11F00A0EB7A
:105950000C00704711F0004F08BF704731F0004154
:105960003FF4D5AF0B0C06BF09044FF0100C4FF0FD
:10597000000C0B0E04BF09020CF1080C0B0F04BF46
:1059800009010CF1040C8B0F04BF89000CF1020C0F
:10599000CB0F04BF49000CF1010CCCF12003A0EBAC
:1059A0000C0022FA03F302FA0CF241EA030100F1BF
:1059B0000100704720F07F4C80EA030023F07F470E
:1059C000ACEB070303F57C5300F0004003F1FF0349
:1059D0002DE980494FEA154B09B44FEA144325EAF3
:1059E0000B4E24EA03480FF2042606EB132749085E
:1059F0003E785FEA320203FB0667C7F5000707FB44
:105A000006F64FEA54374FEAD64606F1020607FB80
:105A1000066CCCF1005C4FEA1C472CEA074C07FBF4
:105A200006F40CFB06F504EB15464FEA961634BF58
:105A300000204FF000404FEAD13706FB07FC4FEA49
:105A40001C4C0CFB0BF7D21B03FB0CF761EB0701A3
:105A50000CFB0EF7B0EB074072EB17420CFB08F79C
:105A600034BFA2EB0742B2EB074261EB17414FEAAA
:105A70000C444FEA910706FB07FC4FEA1C4C0CFB59
:105A80000BF7B0EBC74072EB573203FB0CF734BF98
:105A9000A2EBC742B2EBC74261EB57310CFB0EF7EA
:105AA000B0EBC70072EB57720CFB08F734BFA2EBE8
:105AB000C702B2EBC70261EB5771039F4FEA8161E6
:105AC00041EA921104EBCC044FEAD1374FEA8262EB
:105AD00006FB07FC42EA90124FEA80604FEA1C4C3A
